{
  "contractName": "Conference",
  "abi": [
    {
      "constant": true,
      "inputs": [
        {
          "name": "",
          "type": "address"
        }
      ],
      "name": "registrantsPaid",
      "outputs": [
        {
          "name": "",
          "type": "uint256"
        }
      ],
      "payable": false,
      "stateMutability": "view",
      "type": "function"
    },
    {
      "constant": true,
      "inputs": [],
      "name": "organizer",
      "outputs": [
        {
          "name": "",
          "type": "address"
        }
      ],
      "payable": false,
      "stateMutability": "view",
      "type": "function"
    },
    {
      "constant": true,
      "inputs": [],
      "name": "quota",
      "outputs": [
        {
          "name": "",
          "type": "uint256"
        }
      ],
      "payable": false,
      "stateMutability": "view",
      "type": "function"
    },
    {
      "constant": true,
      "inputs": [],
      "name": "numRegistrants",
      "outputs": [
        {
          "name": "",
          "type": "uint256"
        }
      ],
      "payable": false,
      "stateMutability": "view",
      "type": "function"
    },
    {
      "inputs": [],
      "payable": false,
      "stateMutability": "nonpayable",
      "type": "constructor"
    },
    {
      "anonymous": false,
      "inputs": [
        {
          "indexed": false,
          "name": "_from",
          "type": "address"
        },
        {
          "indexed": false,
          "name": "_amount",
          "type": "uint256"
        }
      ],
      "name": "Deposit",
      "type": "event"
    },
    {
      "anonymous": false,
      "inputs": [
        {
          "indexed": false,
          "name": "_to",
          "type": "address"
        },
        {
          "indexed": false,
          "name": "_amount",
          "type": "uint256"
        }
      ],
      "name": "Refund",
      "type": "event"
    },
    {
      "constant": false,
      "inputs": [],
      "name": "buyTicket",
      "outputs": [],
      "payable": true,
      "stateMutability": "payable",
      "type": "function"
    },
    {
      "constant": false,
      "inputs": [
        {
          "name": "newquota",
          "type": "uint256"
        }
      ],
      "name": "changeQuota",
      "outputs": [],
      "payable": false,
      "stateMutability": "nonpayable",
      "type": "function"
    },
    {
      "constant": false,
      "inputs": [
        {
          "name": "recipient",
          "type": "address"
        },
        {
          "name": "amount",
          "type": "uint256"
        }
      ],
      "name": "refundTicket",
      "outputs": [],
      "payable": false,
      "stateMutability": "nonpayable",
      "type": "function"
    },
    {
      "constant": false,
      "inputs": [],
      "name": "destroy",
      "outputs": [],
      "payable": false,
      "stateMutability": "nonpayable",
      "type": "function"
    }
  ],
  "bytecode": "0x6060604052341561000f57600080fd5b336000806101000a81548173ffffffffffffffffffffffffffffffffffffffff021916908373ffffffffffffffffffffffffffffffffffffffff160217905550606460038190555060006002819055506106148061006e6000396000f30060606040526004361061008e576000357c0100000000000000000000000000000000000000000000000000000000900463ffffffff16806313381fbf1461009357806361203265146100e0578063705099b91461013557806383197ef014610177578063a977c71e1461018c578063cebe09c9146101af578063ec3a6f73146101d8578063edca914c14610201575b600080fd5b341561009e57600080fd5b6100ca600480803573ffffffffffffffffffffffffffffffffffffffff1690602001909190505061020b565b6040518082815260200191505060405180910390f35b34156100eb57600080fd5b6100f3610223565b604051808273ffffffffffffffffffffffffffffffffffffffff1673ffffffffffffffffffffffffffffffffffffffff16815260200191505060405180910390f35b341561014057600080fd5b610175600480803573ffffffffffffffffffffffffffffffffffffffff16906020019091908035906020019091905050610248565b005b341561018257600080fd5b61018a610410565b005b341561019757600080fd5b6101ad60048080359060200190919050506104a1565b005b34156101ba57600080fd5b6101c2610507565b6040518082815260200191505060405180910390f35b34156101e357600080fd5b6101eb61050d565b6040518082815260200191505060405180910390f35b610209610513565b005b60016020528060005260406000206000915090505481565b6000809054906101000a900473ffffffffffffffffffffffffffffffffffffffff1681565b60008060009054906101000a900473ffffffffffffffffffffffffffffffffffffffff1673ffffffffffffffffffffffffffffffffffffffff163373ffffffffffffffffffffffffffffffffffffffff161415156102a55761040b565b81600160008573ffffffffffffffffffffffffffffffffffffffff1673ffffffffffffffffffffffffffffffffffffffff16815260200190815260200160002054141561040a57309050818173ffffffffffffffffffffffffffffffffffffffff1631101515610409578273ffffffffffffffffffffffffffffffffffffffff166108fc839081150290604051600060405180830381858888f19350505050507fbb28353e4598c3b9199101a66e0989549b659a59a54d2c27fbb183f1932c8e6d8383604051808373ffffffffffffffffffffffffffffffffffffffff1673ffffffffffffffffffffffffffffffffffffffff1681526020018281526020019250505060405180910390a16000600160008573ffffffffffffffffffffffffffffffffffffffff1673ffffffffffffffffffffffffffffffffffffffff16815260200190815260200160002081905550600260008154809291906001900391905055505b5b5b505050565b6000809054906101000a900473ffffffffffffffffffffffffffffffffffffffff1673ffffffffffffffffffffffffffffffffffffffff163373ffffffffffffffffffffffffffffffffffffffff16141561049f576000809054906101000a900473ffffffffffffffffffffffffffffffffffffffff1673ffffffffffffffffffffffffffffffffffffffff16ff5b565b6000809054906101000a900473ffffffffffffffffffffffffffffffffffffffff1673ffffffffffffffffffffffffffffffffffffffff163373ffffffffffffffffffffffffffffffffffffffff161415156104fc57610504565b806003819055505b50565b60035481565b60025481565b60035460025410151561052557600080fd5b34600160003373ffffffffffffffffffffffffffffffffffffffff1673ffffffffffffffffffffffffffffffffffffffff168152602001908152602001600020819055506002600081548092919060010191905055507fe1fffcc4923d04b559f4d29a8bfc6cda04eb5b0d3c460751c2402c5c5cc9109c3334604051808373ffffffffffffffffffffffffffffffffffffffff1673ffffffffffffffffffffffffffffffffffffffff1681526020018281526020019250505060405180910390a15600a165627a7a72305820a59e34685bc3e037eaf4a10861dc5f7dcd3fcd8bc2e961318274e7418d1434180029",
  "source": "pragma solidity ^0.4.19;\n\ncontract Conference {  // can be killed, so the owner gets sent the money in the end\n\n\taddress public organizer;\n\tmapping (address => uint) public registrantsPaid;\n\tuint public numRegistrants;\n\tuint public quota;\n\n\tevent Deposit(address _from, uint _amount); // so you can log the event\n\tevent Refund(address _to, uint _amount); // so you can log the event\n\n\tfunction Conference() {\n\t\torganizer = msg.sender;\t\t\n\t\tquota = 100;\n\t\tnumRegistrants = 0;\n\t}\n\n\tfunction buyTicket() public payable {\n\t\tif (numRegistrants >= quota) { \n\t\t\tthrow; // throw ensures funds will be returned\n\t\t}\n\t\tregistrantsPaid[msg.sender] = msg.value;\n\t\tnumRegistrants++;\n\t\tDeposit(msg.sender, msg.value);\n\t}\n\n\tfunction changeQuota(uint newquota) public {\n\t\tif (msg.sender != organizer) { return; }\n\t\tquota = newquota;\n\t}\n\n\tfunction refundTicket(address recipient, uint amount) public {\n\t\tif (msg.sender != organizer) { return; }\n\t\tif (registrantsPaid[recipient] == amount) { \n\t\t\taddress myAddress = this;\n\t\t\tif (myAddress.balance >= amount) { \n\t\t\t\trecipient.send(amount);\n\t\t\t\tRefund(recipient, amount);\n\t\t\t\tregistrantsPaid[recipient] = 0;\n\t\t\t\tnumRegistrants--;\n\t\t\t}\n\t\t}\n\t\treturn;\n\t}\n\n\tfunction destroy() {\n\t\tif (msg.sender == organizer) { // without this funds could be locked in the contract forever!\n\t\t\tsuicide(organizer);\n\t\t}\n\t}\n}",
  "sourcePath": "/home/pony/ethereum/conference/contracts/Conference.sol",
  "compiler": {
    "name": "solc",
    "version": "0.4.19+commit.c4cbbb05.Emscripten.clang"
  },
  "schemaVersion": "2.0.0",
  "updatedAt": "2018-03-22T03:25:01.660Z"
}